:100000000C9452000C9464000C9464000C946400F2
:100010000C9464000C9464000C9464000C946400D0
:100020000C9464000C9464000C9464000C946400C0
:100030000C9464000C9464000C9455030C946400BC
:100040000C9464000C9464000C9495010C9464006E
:100050000C9464000C9464000C9464000C94640090
:100060000C9464000C946400556E6573697465208B
:100070006E3A200D0A00556E6573697465207261D1
:100080007A6C696B753A200D0A00556E6573697458
:1000900065207072766920656C656D656E743A20B6
:1000A0000D0A000011241FBECFEFD8E0DEBFCDBF88
:1000B00011E0A0E0B1E001C01D92A734B107E1F763
:1000C0000E94AC000C9467040C9400004150504016
:1000D000469F9001479F300D569F300D1124280FE9
:1000E000391FC9010895FC01213099F4DB01A80FE3
:1000F000B91F22E030E007C0CD01861B970BE80F47
:10010000F91F2F5F3F4FA60FB71F24173507A4F322
:1001100021C0223019F0E0E0F0E01CC0EE0FFF1F1C
:1001200041505040469FC001479F900D569F900DF3
:1001300011244F5F5F4F8E0F9F1F9C01249FC001B2
:10014000259F900D349F900D112462E070E00E9475
:100150001E04FB01CF01089560E875E280E090E0A5
:100160000E94CE010E94800380E065E041E00E9491
:1001700042018AE890E00E9459020E941D028823F1
:10018000E1F364E670E080E090E00E94EA030E9400
:10019000FA0286E790E00E9459020E941D0288231D
:1001A000E1F364E670E080E090E00E94EA030E94E0
:1001B000FA0280E065E040E00E94EF0088E690E00F
:1001C0000E9459020E941D028823E1F364E670E058
:1001D00080E090E00E94EA030E94FA02CACF8130D8
:1001E000F9F0813020F0823009F04BC032C041304C
:1001F00059F425B181E090E002C0880F991F6A95FB
:10020000E2F7282B25B9089525B181E090E002C0DE
:10021000880F991F6A95E2F78095822385B9089522
:10022000413059F428B181E090E002C0880F991F55
:100230006A95E2F7282B28B9089528B181E090E06B
:1002400002C0880F991F6A95E2F78095822388B9CA
:100250000895413059F42BB181E090E002C0880F3D
:10026000991F6A95E2F7282B2BB908952BB181E0ED
:1002700090E002C0880F991F6A95E2F7809582236B
:100280008BB908958130F9F0813020F0823009F087
:100290004BC032C0413059F424B181E090E002C03B
:1002A000880F991F6A95E2F7282B24B9089524B185
:1002B00081E090E002C0880F991F6A95E2F780956F
:1002C000822384B90895413059F427B181E090E048
:1002D00002C0880F991F6A95E2F7282B27B9089565
:1002E00027B181E090E002C0880F991F6A95E2F77C
:1002F0008095822387B90895413059F42AB181E06D
:1003000090E002C0880F991F6A95E2F7282B2AB95E
:1003100008952AB181E090E002C0880F991F6A9584
:10032000E2F7809582238AB908951F920F920FB643
:100330000F9211242F933F938F939F93EF93FF93EB
:10034000DF93CF93CDB7DEB790910201292F30E034
:10035000E6ECF0E08081F901E95FFE4F8083892FB0
:100360008F5F80930201809102018F73809302015D
:1003700080910001803428F4809100018F5F809388
:100380000001CF91DF91FF91EF919F918F913F916C
:100390002F910F900FBE0F901F901895DF93CF9362
:1003A00000D000D000D0CDB7DEB76B837C838D83C7
:1003B0009E83E0ECF0E080E28083E1ECF0E088E90D
:1003C0008083E2ECF0E086E080838B819C81AD81CC
:1003D000BE81880F991FAA1FBB1F880F991FAA1FD4
:1003E000BB1F880F991FAA1FBB1F880F991FAA1F29
:1003F000BB1F9C01AD0180E492E4AFE0B0E0BC0122
:10040000CD010E943104DA01C90101979A838983E1
:10041000E5ECF0E089819A81892F99278083E4ECCB
:10042000F0E089818083789426960FB6F894DEBF39
:100430000FBECDBFCF91DF910895DF93CF93CDB79E
:10044000DEB780910001CF91DF910895DF93CF93C4
:100450000F92CDB7DEB78983E0ECF0E08081882F82
:1004600090E0807290700097B9F3E6ECF0E089813B
:1004700080830F90CF91DF910895DF93CF9300D0C9
:10048000CDB7DEB79A8389830AC0E981FA8180817A
:100490000E94260289819A8101969A838983E98143
:1004A000FA818081882389F70F900F90CF91DF9197
:1004B0000895DF93CF9300D000D000D0CDB7DEB742
:1004C0009E838D838D819E819B838A838D819E8176
:1004D00001969E838D83EA81FB8184918983898142
:1004E0008C838C81882321F08C810E942602EACFA4
:1004F00026960FB6F894DEBF0FBECDBFCF91DF9129
:100500000895DF93CF9300D0CDB7DEB7809100017F
:10051000882319F48FEF8A8319C020910101822F5B
:1005200090E0FC01E95FFE4F80818983822F8F5F1D
:1005300080930101809101018F738093010180916B
:10054000000181508093000189818A838A810F9004
:100550000F90CF91DF9108950F931F93DF93CF9367
:1005600000D00F92CDB7DEB79B838A8319820FC06C
:100570008981282F30E08A819B818C01020F131F13
:100580000E948102F801808389818F5F8983809135
:100590000001882369F78981282F30E08A819B81B7
:1005A000FC01E20FF31F108289810F900F900F90D2
:1005B000CF91DF911F910F910895DF93CF9300D0DA
:1005C000CDB7DEB780910001882319F48FEF8A83BD
:1005D0000BC080910101882F90E0FC01E95FFE4F84
:1005E0008081898389818A838A810F900F90CF913E
:1005F000DF910895DF93CF9300D000D0CDB7DEB761
:100600001B821A8281E0898303C00E9481028C834D
:100610000E94DD02803324F40E94DD028D32A9F7AE
:100620000E94DD028A338CF71EC00E9481028C83F7
:100630008C818D3219F48FEF898315C08A819B815B
:100640009C01220F331FC901880F991F880F991F22
:10065000280F391F8C81992787FD9095820F931F52
:10066000C0979B838A830E94DD02803324F00E941E
:10067000DD028A33D4F20E94DD028D32B1F289812B
:10068000282F332727FD30958A819B81AC01249F39
:10069000C001259F900D349F900D11240F900F9055
:1006A0000F900F90CF91DF9108951F920F920FB688
:1006B0000F9211248F939F93AF93BF93DF93CF93A8
:1006C000CDB7DEB78091030190910401A09105019F
:1006D000B09106010196A11DB11D80930301909375
:1006E0000401A0930501B0930601CF91DF91BF9162
:1006F000AF919F918F910F900FBE0F901F90189503
:10070000DF93CF9300D000D00F92CDB7DEB7E4E4F3
:10071000F0E082E0808388EE93E0A0E0B0E08A839E
:100720009B83AC83BD8381E0898313C08A819B81D5
:10073000AC81BD81689412F8B695A7959795879579
:100740001694D1F78A839B83AC83BD8389818F5FA5
:1007500089838A819B81AC81BD818F3F9105A105F1
:10076000B10509F018F7E5E4F0E089818083E7E45A
:10077000F0E08A8181508083EEE6F0E082E08083C1
:1007800078940F900F900F900F900F90CF91DF9172
:100790000895DF93CF9300D000D0CDB7DEB7F894A3
:1007A0008091030190910401A0910501B09106018F
:1007B00089839A83AB83BC83789489819A81AB8146
:1007C000BC81BC01CD010F900F900F900F90CF9185
:1007D000DF910895DF93CF93CDB7DEB728970FB69B
:1007E000F894DEBF0FBECDBF6D837E838F83988765
:1007F0000E94C903DC01CB0189839A83AB83BC834C
:100800000E94C9039B01AC0189819A81AB81BC81A3
:10081000281B390B4A0B5B0B8D819E81AF81B885FC
:10082000281739074A075B0758F328960FB6F8943C
:10083000DEBF0FBECDBFCF91DF91089597FB092E8C
:1008400007260AD077FD04D02ED006D000201AF457
:10085000709561957F4F0895F6F7909581959F4F1C
:100860000895A1E21A2EAA1BBB1BFD010DC0AA1FF1
:10087000BB1FEE1FFF1FA217B307E407F50720F009
:10088000A21BB30BE40BF50B661F771F881F991F84
:100890001A9469F760957095809590959B01AC01CD
:1008A000BD01CF010895AA1BBB1B51E107C0AA1FC0
:1008B000BB1FA617B70710F0A61BB70B881F991F01
:1008C0005A95A9F780959095BC01CD010895F894AB
:0208D000FFCF58
:00000001FF
